:020000040800F2
:100000007807002049000608510006084D1A060826
:1000100055000608570006085900060800000000B1
:100020000000000000000000000000005B00060867
:100030005D000608000000005F0006088D1D060830
:10004000C12006089D1C0608151E0608F91C060896
:10005000A5120608B91C0608A9110608ED11060824
:100060000D1206082D1206084D1206082D0F06085F
:10007000510F0608750F0608990F0608BD0F0608F0
:10008000E10F060805100608F50D0608710E0608B2
:10009000110E0608310E0608510E06086D120608EC
:1000A000391E0608AD1E0608811E0608611E0608D8
:1000B00063000608D51E0608F11E0608711A060818
:1000C000511A0608B11A0608911A0608351D0608C5
:1000D000551D0608412006086120060881200608F3
:1000E000C9110608D51C0608E51B0608651F060889
:1000F000D91F0608AD1F06088D1F0608291006081F
:10010000C5120608191D06080D1F0608711D0608F0
:100110000120060821200608291F0608491F060895
:100120004D1006087110060895100608B91006084B
:10013000DD1006086D11060889110608F10E060883
:10014000910E0608B10E0608D10E0608C51B06085A
:10015000011106082511060849110608A120060804
:10016000F11A0608D11A0608311C0608091C0608EF
:10017000791C0608591C0608110F0608000000002B
:100180002D1A060800F002F85FF04BFF0AA090E875
:10019000000C82448344AAF10107DA4501D15FF0E3
:1001A00040FFAFF2090EBAE80F0013F0010F18BFBD
:1001B000FB1A43F0010318474000000060000000F4
:1001C000103A24BF78C878C1FAD8520724BF30C883
:1001D00030C144BF04680C60704700000023002455
:1001E00000250026103A28BF78C1FBD8520728BF47
:1001F00030C148BF0B607047702306080000002024
:100200001C000000C00100088C2306081C00002010
:080210005C070000DC0100089E
:020000040800F2
:10C0000008040020A1C10008A9C10008ABC10008B4
:10C01000ADC10008AFC10008B1C1000800000000B8
:10C02000000000000000000000000000B3C1000894
:10C03000B5C1000800000000B7C10008C1C9000870
:10C0400071CC0008D1C80008C5C900082DC9000876
:10C05000ADC60008EDC80008C9C500080DC6000837
:10C060002DC600084DC600086DC600084DC3000867
:10C0700071C3000895C30008B9C30008DDC30008F8
:10C0800001C4000825C4000815C2000891C20008B8
:10C0900031C2000851C2000871C200088DC60008F4
:10C0A000E9C900085DCA000831CA000811CA0008C1
:10C0B000BBC1000885CA0008A1CA000829C700083A
:10C0C00009C7000869C7000849C7000869C900080E
:10C0D00089C90008F1CB000811CC000831CC000858
:10C0E000E9C5000809C9000819C8000815CB0008EF
:10C0F00089CB00085DCB00083DCB000849C400088F
:10C10000CDC600084DC90008BDCA0008A5C9000871
:10C11000B1CB0008D1CB0008D9CA0008F9CA000881
:10C120006DC4000891C40008B5C40008D9C4000853
:10C13000FDC400088DC50008A9C5000811C300088A
:10C14000B1C20008D1C20008F1C20008F9C7000856
:10C1500021C5000845C5000869C5000851CC000884
:10C16000A9C7000889C7000865C800083DC80008BD
:10C17000ADC800088DC8000831C3000800000000E9
:10C18000E9C60008DFF80CD000F032F8004800479C
:10C190006DCE00080804002001688D464068804785
:10C1A0000648804706480047FEE7FEE7FEE7FEE751
:10C1B000FEE7FEE7FEE7FEE7FEE7FEE7C3C900088D
:10C1C00085C1000830B50B4601460020202201241D
:10C1D00009E021FA02F59D4205D303FA02F5491B55
:10C1E00004FA02F52844151EA2F10102F1DC30BD6B
:10C1F000064C074D06E0E06840F0010394E80700B4
:10C2000098471034AC42F6D3FFF7C0FFF4CE0008D5
:10C2100014CF000810B502A000F038FD10BD0000DA
:10C220004144435F49525148616E646C657200003D
:10C2300010B502A000F02AFD10BD000043414E31B0
:10C240005F5258305F49525148616E646C657200AC
:10C2500010B502A000F01AFD10BD000043414E31A0
:10C260005F5258315F49525148616E646C6572008B
:10C2700010B502A000F00AFD10BD000043414E3190
:10C280005F5343455F49525148616E646C6572006B
:10C2900010B502A000F0FAFC10BD000043414E3181
:10C2A0005F54585F49525148616E646C657200007A
:10C2B00010B502A000F0EAFC10BD000043414E3270
:10C2C0005F5258305F49525148616E646C6572002C
:10C2D00010B502A000F0DAFC10BD000043414E3260
:10C2E0005F5258315F49525148616E646C6572000B
:10C2F00010B502A000F0CAFC10BD000043414E3250
:10C300005F5343455F49525148616E646C657200EA
:10C3100010B502A000F0BAFC10BD000043414E323F
:10C320005F54585F49525148616E646C65720000F9
:10C3300010B502A000F0AAFC10BD000044434D4916
:10C340005F49525148616E646C65720010B502A07D
:10C3500000F09CFC10BD0000444D41315F537472ED
:10C3600065616D305F49525148616E646C65720061
:10C3700010B502A000F08AFC10BD0000444D413110
:10C380005F53747265616D315F49525148616E64EB
:10C390006C65720010B502A000F078FC10BD0000C2
:10C3A000444D41315F53747265616D325F49525142
:10C3B00048616E646C65720010B502A000F066FC06
:10C3C00010BD0000444D41315F53747265616D339F
:10C3D0005F49525148616E646C65720010B502A0ED
:10C3E00000F054FC10BD0000444D41315F537472A5
:10C3F00065616D345F49525148616E646C657200CD
:10C4000010B502A000F042FC10BD0000444D4131C7
:10C410005F53747265616D355F49525148616E6456
:10C420006C65720010B502A000F030FC10BD000079
:10C43000444D41315F53747265616D365F495251AD
:10C4400048616E646C65720010B502A000F01EFCBD
:10C4500010BD0000444D41315F53747265616D370A
:10C460005F49525148616E646C65720010B502A05C
:10C4700000F00CFC10BD0000444D41325F5374725B
:10C4800065616D305F49525148616E646C65720040
:10C4900010B502A000F0FAFB10BD0000444D41327F
:10C4A0005F53747265616D315F49525148616E64CA
:10C4B0006C65720010B502A000F0E8FB10BD000032
:10C4C000444D41325F53747265616D325F49525120
:10C4D00048616E646C65720010B502A000F0D6FB76
:10C4E00010BD0000444D41325F53747265616D337D
:10C4F0005F49525148616E646C65720010B502A0CC
:10C5000000F0C4FB10BD0000444D41325F53747213
:10C5100065616D345F49525148616E646C657200AB
:10C5200010B502A000F0B2FB10BD0000444D413236
:10C530005F53747265616D355F49525148616E6435
:10C540006C65720010B502A000F0A0FB10BD0000E9
:10C55000444D41325F53747265616D365F4952518B
:10C5600048616E646C65720010B502A000F08EFB2D
:10C5700010BD0000444D41325F53747265616D37E8
:10C580005F49525148616E646C65720010B502A03B
:10C5900000F07CFB10BD00004554485F49525148F3
:10C5A000616E646C6572000010B502A000F06EFB55
:10C5B00010BD00004554485F574B55505F495251DC
:10C5C00048616E646C65720010B502A000F05EFBFD
:10C5D00010BD000045585449305F49525148616EC2
:10C5E000646C65720000000010B502A000F04EFB04
:10C5F00010BD00004558544931355F31305F495214
:10C600005148616E646C65720000000010B502A0B4
:10C6100000F03CFB10BD000045585449315F4952C1
:10C620005148616E646C65720000000010B502A094
:10C6300000F02CFB10BD000045585449325F4952B0
:10C640005148616E646C65720000000010B502A074
:10C6500000F01CFB10BD000045585449335F49529F
:10C660005148616E646C65720000000010B502A054
:10C6700000F00CFB10BD000045585449345F49528E
:10C680005148616E646C65720000000010B502A034
:10C6900000F0FCFA10BD000045585449395F355F81
:10C6A00049525148616E646C6572000010B502A079
:10C6B00000F0ECFA10BD0000464C4153485F49526F
:10C6C0005148616E646C65720000000010B502A0F4
:10C6D00000F0DCFA10BD000046534D435F49525153
:10C6E00048616E646C65720010B502A000F0CEFA6D
:10C6F00010BD0000484153485F524E475F495251B8
:10C7000048616E646C65720010B502A000F0BEFA5C
:10C7100010BD0000493243315F45525F49525148D4
:10C72000616E646C6572000010B502A000F0AEFA94
:10C7300010BD0000493243315F45565F49525148B0
:10C74000616E646C6572000010B502A000F09EFA84
:10C7500010BD0000493243325F45525F4952514893
:10C76000616E646C6572000010B502A000F08EFA74
:10C7700010BD0000493243325F45565F495251486F
:10C78000616E646C6572000010B502A000F07EFA64
:10C7900010BD0000493243335F45525F4952514852
:10C7A000616E646C6572000010B502A000F06EFA54
:10C7B00010BD0000493243335F45565F495251482E
:10C7C000616E646C657200000A49096801F001013C
:10C7D00071B108498039096801F0010141B100BF18
:10C7E0004FF0604109680029FAD04FF060421070A4
:10C7F00070470000800E00E010B502A000F046FA7D
:10C8000010BD00004F54475F46535F495251486185
:10C810006E646C657200000010B502A000F036FA7C
:10C8200010BD00004F54475F46535F574B55505F54
:10C8300049525148616E646C6572000010B502A0E7
:10C8400000F024FA10BD00004F54475F48535F4585
:10C8500050315F494E5F49525148616E646C657258
:10C860000000000010B502A000F010FA10BD00009A
:10C870004F54475F48535F4550315F4F55545F49B0
:10C88000525148616E646C657200000010B502A0E0
:10C8900000F0FCF910BD00004F54475F48535F495A
:10C8A000525148616E646C657200000010B502A0C0
:10C8B00000F0ECF910BD00004F54475F48535F573C
:10C8C0004B55505F49525148616E646C657200006F
:10C8D00010B502A000F0DAF910BD00005056445F18
:10C8E00049525148616E646C6572000010B502A037
:10C8F00000F0CCF910BD00005243435F495251484B
:10C90000616E646C6572000010B502A000F0BEF9A3
:10C9100010BD00005254435F416C61726D5F49521B
:10C920005148616E646C65720000000010B502A091
:10C9300000F0ACF910BD00005254435F574B555006
:10C940005F49525148616E646C65720010B502A077
:10C9500000F09CF910BD00005344494F5F4952510B
:10C9600048616E646C65720010B502A000F08EF92B
:10C9700010BD0000493243325F45525F4952514871
:10C98000616E646C6572000010B502A000F07EF963
:10C9900010BD0000535049325F49525148616E64E6
:10C9A0006C65720010B502A000F070F910BD0000B7
:10C9B000535049335F49525148616E646C6572004F
:10C9C0007047704710B502A000F060F910BD00007C
:10C9D00054414D505F5354414D505F49525148614D
:10C9E0006E646C657200000010B502A000F04EF994
:10C9F00010BD000054494D315F42524B5F54494DC8
:10CA0000395F49525148616E646C657200000000E4
:10CA100010B502A000F03AF910BD000054494D31A4
:10CA20005F43435F49525148616E646C6572000018
:10CA300010B502A000F02AF910BD000054494D3194
:10CA40005F5452475F434F4D5F54494D31315F4909
:10CA5000525148616E646C657200000010B502A00E
:10CA600000F014F910BD000054494D315F55505F7E
:10CA700054494D31305F49525148616E646C657262
:10CA80000000000010B502A000F000F910BD000089
:10CA900054494D335F49525148616E646C65720070
:10CAA00010B502A000F0F2F810BD000054494D345A
:10CAB0005F49525148616E646C65720010B502A006
:10CAC00000F0E4F810BD000054494D355F49525163
:10CAD00048616E646C65720010B502A000F0D6F873
:10CAE00010BD000054494D365F4441435F495251E7
:10CAF00048616E646C65720010B502A000F0C6F863
:10CB000010BD000054494D375F49525148616E6471
:10CB10006C65720010B502A000F0B8F810BD0000FE
:10CB200054494D385F42524B5F54494D31325F4951
:10CB3000525148616E646C657200000010B502A02D
:10CB400000F0A4F810BD000054494D385F43435F26
:10CB500049525148616E646C6572000010B502A0C4
:10CB600000F094F810BD000054494D385F5452470E
:10CB70005F434F4D5F54494D31345F4952514861D5
:10CB80006E646C657200000010B502A000F07EF8C3
:10CB900010BD000054494D385F55505F54494D3128
:10CBA000335F49525148616E646C65720000000049
:10CBB00010B502A000F06AF810BD000055415254B3
:10CBC000345F49525148616E646C65720000000028
:10CBD00010B502A000F05AF810BD000055415254A3
:10CBE000355F49525148616E646C65720000000007
:10CBF00010B502A000F04AF810BD00005553415294
:10CC000054315F49525148616E646C657200000096
:10CC100010B502A000F03AF810BD00005553415283
:10CC200054325F49525148616E646C657200000075
:10CC300010B502A000F02AF810BD00005553415273
:10CC400054335F49525148616E646C657200000054
:10CC500010B502A000F01AF810BD00005553415263
:10CC600054365F49525148616E646C657200000031
:10CC700010B502A000F00AF810BD00005757444755
:10CC80005F49525148616E646C6572000FB4054B88
:10CC900010B503A9044A029800F018F810BC5DF81A
:10CCA00014FB00003DCE00080000002002E008C890
:10CCB000121F08C1002AFAD170477047002001E016
:10CCC00001C1121F002AFBD1704700002DE9FF4F60
:10CCD00089B09B460446002506E025280BD05A461D
:10CCE0000B999047641C6D1C20780028F5D10DB07D
:10CCF0002846BDE8F08F0027B8460122474900E0EA
:10CD0000074314F8013F203B02FA03F00842F7D131
:10CD100020782E2819D114F8010F47F004072A288B
:10CD20000ED06FF02F022078A0F1300109290CD825
:10CD300008EB880102EB410100EB0108641CF2E7FB
:10CD40000A98641C50F8048B0A9020780028CED0F2
:10CD5000642808D0692806D075281ED05A460B9939
:10CD600090476D1C58E00A994FF00A0901C90A91D1
:10CD7000002802DA40422D2102E0390504D52B219A
:10CD80008DF82010012103E0F90704D02021F7E7F6
:10CD90008A4608AE0DE00021FAE70A994FF00A0929
:10CDA00001C90A91F7E74946FFF70CFA303106F856
:10CDB000011D0028F7D1ADEB060000F1200978072E
:10CDC00001D44FF00108C84502DDA8EB090000E0DE
:10CDD00000208046002706E008A85A46C05D0B994F
:10CDE00090476D1C7F1C5745F6DB04E030205A4607
:10CDF0000B9990476D1CB8F10001A8F10108F5DC12
:10CE000005E016F8010B5A460B9990476D1CB9F1D5
:10CE10000001A9F10109F4DC641C65E7092801009F
:10CE200008E0401E0A2100BF0A1EA1F1010399B2C9
:10CE3000FAD100BF0028F4D17047000070B5054654
:10CE40000C460848844203D1284600F04DF870BDD6
:10CE50000548844203D1284600F040F8F7E74FF038
:10CE6000FF30F4E7000000200400002010B50FA000
:10CE7000FFF70CFF42F21070FFF7D2FF002409E029
:10CE800021460DA0FFF702FF42F21070FFF7C8FF26
:10CE9000601C84B20A2CF3DB0DA0FFF7F7FE4FF005
:10CEA0000060FFF779F9002010BD000048692041BB
:10CEB00050500D0A0000000041505020636F756E05
:10CEC00074696E6721206E756D3A2025640D0A0025
:10CED000427965204150500D0A00000000B503461C
:10CEE0001846FFF771FC00BD00B503461846FFF772
:10CEF0006BFC00BD14CF00080000002008000000FB
:10CF0000ACCC00081CCF0008080000200004000082
:0CCF1000BCCC0008000000000000000085
:020000040806EC
:10000000642900F0F980002070471FB59DE80300C7
:1000100000F0E2FC00F01EFA1FBD10B500F083FAFC
:1000200010BD00F0B3FA1146FFF7EFFF02F03AF906
:1000300000F0A2FC03B4FFF7F0FF03BC00F03EFEAB
:1000400001688D4640688047094880470948004755
:10005000FEE7FEE7FEE7FEE7FEE7FEE7FEE7FEE778
:10006000FEE7FEE704480549054A064B70470000D5
:10007000111E06088501000878010020780700207D
:10008000780300207803002053EA020C00F0698016
:100090002DE9F04B4FF00006002B1FBFB3FA83F59C
:1000A00003FA05F424FA05F65E4012BF1643B2FACD
:1000B00082F502FA05F4C5F120051EBF22FA05FCFF
:1000C00044EA0C04203556EA044C4FEA144418BFA5
:1000D000641C4FF000084FF00009904271EB030CD4
:1000E00039D3002919BFB1FA81F701FA07F6B0FA3E
:1000F00080F700FA07F6C7F120071EBF20FA07FCB9
:1001000046EA0C062037B6FBF4FCA7EB0507103FC8
:1001100007F01F0BCBF120060CFA0BFB2CFA06F6AE
:1001200044BFB3460026202FA4BF5E464FF0000B0D
:100130005BEA060C08BF4FF0010B19EB0B09ABFB98
:10014000027C48EB0608C01B06FB02CC0BFB03CC71
:1001500071EB0C01C1E70B46024641464846BDE83B
:10016000F08B13B54FF000004FF00001AFF30080AB
:10017000BDE81C40704700000FB4044910B503AA45
:10018000029800F039F910BC5DF814FB70000020F3
:100190002DE9F0410E460446002020622046E16829
:1001A000884730B3252805D0D4E901219047206A3B
:1001B000401CF2E7E168204600278847050018D078
:1001C000A5F14100192802D820354FF400673246C6
:1001D000294620462760FFF713FF40B1012804D0CD
:1001E000F61D26F007060836D8E7361DD6E728465E
:1001F000DAE7206ABDE8F0812DE9F04106460024E7
:1002000010687529314616A510D0AFF3008000287C
:1002100002DA404213A507E031688A0701D512A52A
:1002200002E0490704D511A5012401E0AFF30080E5
:1002300000210A2206F1240709E0B0FBF2FCB0FB22
:10024000F2F302FB1C00303078541846491C002899
:10025000F3D123462A463046BDE8F04100F073B89A
:10026000000000002D0000002B0000002000000016
:100270004FF0000200B5134694469646203922BF3F
:10028000A0E80C50A0E80C50B1F12001BFF4F7AF8A
:10029000090728BFA0E80C5048BF0CC05DF804EB6C
:1002A000890028BF40F8042B08BF704748BF20F8DA
:1002B000022B11F0804F18BF00F8012B704700008F
:1002C0004FF0013C50F8042B51F8043B9A4221D1E5
:1002D000A2EB0C03934313EACC1317D150F8042B71
:1002E00051F8043B9A4215D1A2EB0C03934313EA55
:1002F000CC130BD150F8042B51F8043B9A4209D18E
:10030000A2EB0C03934313EACC13DBD04FF00000B5
:10031000704700BFD01A01BAB1FA81F101F018019B
:1003200022FA01F0CB40C1F12001DBB2C0B2C01A09
:100330002CFA01F3D11A914311EAC311E6D17047A7
:100340007047704770472DE9F0470D469946924631
:10035000044600F124080168880604D5E06921F00C
:100360001001216000E00120A84201DD471B00E0F0
:100370000027A1697A1902EB0900081AA061207808
:10038000C00602D42046AFF30080002608E0D4E97E
:1003900001211AF806009047206A401C761C206252
:1003A0004E45F4DB2078C0060AD52046AFF3008026
:1003B00006E0D4E9012130209047206A401C2062E9
:1003C000381EA7F10107F4DC07E0D4E9012118F891
:1003D00005009047206A401C2062281EA5F10105F7
:1003E000F3DC2046AFF300802078000602D502201F
:1003F000BDE8F0870120FBE7074B70B50D467B4455
:1004000000F011F80446284600F020F810B14FF033
:10041000FF3070BD204670BD891E000001694A1C76
:1004200002610878704700B58FB0CDE90131002135
:10043000059105497944CDE9031011466846FFF757
:10044000A7FE0FB000BD0000E5FFFFFF007B00F03E
:100450008000704710B542485421FFF709FF41481A
:100460005421FFF705FF40485421FFF701FF3F49A2
:100470003B483C4A3F4B08603D490A603A49196095
:10048000531C0365481C1065012008653B48344A2D
:1004900039A1784400F0D4F920B9384878440A38B2
:1004A00000F073FA37482F4A35A1784400F0C8F9B4
:1004B00020B9344878440A3800F067FA32482A4AAA
:1004C0002FA1784400F0BCF920B92F4878440A38AD
:1004D00000F05BFA40232248DC000021224600F0B5
:1004E0008CF920B125487844543800F04EFA1D4864
:1004F00022464023002100F080F920B121487844B1
:10050000543800F042FA184822461023002100F027
:1005100074F9002806D01C487844BDE810405638CD
:1005200000F033BA10BD104870B5006D20F0010422
:100530000B4800F0FBF90B4800F0F8F90A4800F00E
:10054000F5F909E0206D20F00105204600F0EEF9F4
:10055000204600F040F82C46002CF3D170BD00007E
:100560001C00002070000020C400002010000020AB
:10057000140000201800002072000000C21E0000BD
:1005800077000000B11E0000A11E0000754600F0BB
:1005900003FAAE4605006946534620F0070085463B
:1005A00018B020B5FFF75EFDBDE820404FF0000613
:1005B0004FF000074FF000084FF0000B21F007014B
:1005C000AC46ACE8C009ACE8C009ACE8C009ACE88E
:1005D000C0098D46704770B50446051F00F0E0F96C
:1005E0000068002C14BF446870BD002C18BFAC42DA
:1005F0003CBF20466468F8D301680A18AA4218BFB5
:10060000456003D12A6805461144016028684119F4
:10061000A1421CBF6C6070BD6168696021680844BC
:10062000286070BD2DE9F04705460C46C86820F4E7
:10063000201040F48000C860800602D5084600F013
:10064000FCFAE06841F282014FF0FF3901400229D3
:1006500003D0204600F09AFAB5E000F42041B1F54D
:10066000004F0FD1C00306D56168E06A884200D808
:100670000846606006E02069E0626060606901F041
:100680005CFDA061A0680022EEB200280DDAE168EE
:100690008B050AD4C043A06041F490302260E06032
:1006A0006068411C61600670A5E0E06890462260C9
:1006B00040F40050E060206968BB606901F04FFDC4
:1006C000012704F12405A0B1A08910F4407F08D0CF
:1006D000E06900F0B0F9206118B1E06840F4006012
:1006E00016E0E7612561E06820F4407040F4806026
:1006F0000EE0E06900F09FF900282061F1D0E06889
:1007000040F4006010F4407FE06002D140F480705B
:10071000E06020696060E06825696FF0010AC1054A
:100720001FD56168E06A884200D80846411B04D0A2
:100730002246284600F034FAF0BBE068010203D5F7
:10074000E562C4E9015854E0691CE1626160E16955
:1007500040F48030491EC4E9021030462E70BDE8D6
:10076000F087010202D500F480320AE06068411C83
:1007700061600670E0680A2E40F48030E06006D0C8
:100780000022E16A6068814203D90B4602E001223F
:10079000F7E70346A7895B1B7F0503D4E7699F4200
:1007A00000DDE2B1814200D80146E5620F1AC4E9DA
:1007B0000158002B09DD00E005E0224619462846D5
:1007C00000F0EEF908B14846C9E747B1A069E56213
:1007D0006560C01BA061E06840F01000E060E06868
:1007E000000208D56168A069E562491B084465609C
:1007F000A0615046B3E73046B1E770B5C468A507BD
:1008000013D0650211D4B2F5807F09D0B2F5007F14
:1008100006D0B2F5806F08D1012300F1240106E073
:100820005D1E6FF07F46B54201D3012070BD0161AE
:10083000C361416024F470611143C160002070BD48
:100840002DE9F0410C4607461646104600F06EF8BA
:100850002078611C61280AD0722802D077283CD108
:1008600002E00125002405E00225042402E008241A
:1008700048F2020511F8010B2B2806D0622809D096
:1008800011F8010C74280AD00BE045F0030544F080
:100890000204EFE745F0040544F00104EAE744F000
:1008A00010043846214601F06DFC411C15D0002192
:1008B000316171604FF40071F560F1617061200782
:1008C00004D530460222002100F0E4F8306D40F0FB
:1008D000010030653046BDE8F0810020FBE72DE9DE
:1008E000F0410D460646104C206DC10704D041086A
:1008F00004D020F00104F7E722460EE0542000F077
:100900009AF807000ED0206D47F0010108435421EA
:1009100020653846FFF7ACFC3A4629463046BDE82C
:10092000F0418DE70020D6E71C0000202DE9F047BC
:1009300004464FF000094FF0FF37C568D4E904863C
:10094000A80707D0204600F055F9304601F0E2FB39
:10095000002802DA3846BDE8F087280502D540466F
:10096000FFF739FE4C212046FFF782FC206D20F076
:10097000010020654846EEE710B50446AFF300805D
:100980002046BDE81040FFF755BB10B500F07CF9DC
:10099000BDE8104000F072B900487047180100200F
:1009A000004870472001002070477047704770472B
:1009B00038B504460A4600206946AFF30080002897
:1009C00008BF38BD02460099204600F084F9012096
:1009D00038BD012000F0D3B9F8B5AFF3008005466B
:1009E00000200C46102000BF0646A819A0420DD9D1
:1009F000324669460020AFF30080070008BF00F0D0
:100A0000BEF90098A04218BF0546C419FFF7C8FFF9
:100A100005600746F01D20F007004619284600F043
:100A200053F9B44208BFF8BDA21B31463868BDE88F
:100A3000F84000F050B970B50646FFF7B1FF056801
:100A400006F10B0020F00704B4429CBF002070BDEB
:100A50002B466A68BAB11068A04210D304F10801AD
:100A600088423CBF5068586007D3516810194160F4
:100A70001168091B016058601460101D70BD134699
:100A80005268002AE7D121462846FFF791FF002847
:100A9000DED170BD2DE9F041044616460D4647698A
:100AA000007B80072ED0384601F059FB50BB3EB387
:100AB000012E02D0022E25D104E0204600F025F9B7
:100AC00005441DE0384601F038FBE168002841F09C
:100AD0001001E16005DA204600F058F80120BDE879
:100AE000F081C9030BD56268E16A914200D81146D2
:100AF000A26911442269891A814200DD0846054431
:100B0000002D01DA0220EAE7E16A6068E2688142CA
:100B100006D29103E06203D522F4003141F01002C5
:100B2000A6690027AE4213DCE16A814201D90B4677
:100B300000E0034603EB060C2369ACEB030CAC4569
:100B400006DD814201D98C4600E084469C4505D1F2
:100B5000A760276042F02000A5620DE0AD1BE669AA
:100B6000AE1B8142A66000D90846C01A281A206030
:100B70005819606022F0200003490840E06000201E
:100B800084F84870ABE70000BFCFD7FFC16821F4FD
:100B9000001141F08001C160002181600160704757
:100BA0002DE9F047814614460E464FF0FF38324893
:100BB000D5685769054209D03846A16901F016FB8E
:100BC000002811DB2C48C0430540E5602B46324627
:100BD0004946384601F020FBA16920F00042B21AD4
:100BE00011440028A16103D02046FFF7CFFF404603
:100BF000BDE8F08770B504460569C06A616888423F
:100C000000D80846E16821F42011E160C90312D53B
:100C1000A84208D02246411B2846FFF7C1FF10B169
:100C20004FF0FF3070BD0020E562C4E90150E0687C
:100C300020F48030E060002070BD10B50446C0682C
:100C400020F02000E060A16AA06988420DD0204613
:100C5000FFF7D0FFE06820F4405040F01000E06063
:100C6000A06AA0612069E062606044F24001E0682F
:100C70008843E06010BD000010000200002801D091
:100C800000F01CB87047000010B5014602A000F04B
:100C90005DF8012010BD00005349475254524544AD
:100CA0003A2052656469726563743A2063616E2705
:100CB00074206F70656E3A20000000000149182012
:100CC000ABBEFEE72600020000210160C0E9011072
:100CD000704710207047034640688C46002818BFB4
:100CE00088423CBF03464068F8D3186818448842DD
:100CF00007D00CF1030020F00700001D411A521A22
:100D00000146081D0A60FFF766BC10B50146C268BF
:100D1000900703D0900607D5886A0AE000F03EF8F5
:100D200001210160881E10BD8B69486818440B6959
:100D3000C01A91F848301BB191F84910401A10BD03
:100D40001103FCD50028FADD401E10BD70B5054624
:100D50000C460A2000E06D1C00F018F835B1287828
:100D60000028F8D102E0641C00F010F814B12078DB
:100D70000028F8D1BDE870400A2000F007B810B58F
:100D800000F010F8BDE81040FFF778BF08B56946DD
:100D90008DF800000320ABBE08BD704700487047C7
:100DA0001801002010B5012805D0002103A0FFF78D
:100DB000CDFF012010BD09A1F8E7000053494752BB
:100DC000544D454D3A204F7574206F66206865611B
:100DD00070206D656D6F7279000000003A204865E3
:100DE0006170206D656D6F727920636F72727570BE
:100DF0007465640010B502A0FFF7BEF910BD0000D5
:100E00004144435F49525148616E646C6572000011
:100E100010B502A0FFF7B0F910BD000043414E31FC
:100E20005F5258305F49525148616E646C65720080
:100E300010B502A0FFF7A0F910BD000043414E31EC
:100E40005F5258315F49525148616E646C6572005F
:100E500010B502A0FFF790F910BD000043414E31DC
:100E60005F5343455F49525148616E646C6572003F
:100E700010B502A0FFF780F910BD000043414E31CC
:100E80005F54585F49525148616E646C657200004E
:100E900010B502A0FFF770F910BD000043414E32BB
:100EA0005F5258305F49525148616E646C65720000
:100EB00010B502A0FFF760F910BD000043414E32AB
:100EC0005F5258315F49525148616E646C657200DF
:100ED00010B502A0FFF750F910BD000043414E329B
:100EE0005F5343455F49525148616E646C657200BF
:100EF00010B502A0FFF740F910BD000043414E328B
:100F00005F54585F49525148616E646C65720000CD
:100F100010B502A0FFF730F910BD000044434D4961
:100F20005F49525148616E646C65720010B502A051
:100F3000FFF722F910BD0000444D41315F53747238
:100F400065616D305F49525148616E646C65720035
:100F500010B502A0FFF710F910BD0000444D41315B
:100F60005F53747265616D315F49525148616E64BF
:100F70006C65720010B502A0FFF7FEF810BD00000E
:100F8000444D41315F53747265616D325F49525116
:100F900048616E646C65720010B502A0FFF7ECF852
:100FA00010BD0000444D41315F53747265616D3373
:100FB0005F49525148616E646C65720010B502A0C1
:100FC000FFF7DAF810BD0000444D41315F537472F1
:100FD00065616D345F49525148616E646C657200A1
:100FE00010B502A0FFF7C8F810BD0000444D413114
:100FF0005F53747265616D355F49525148616E642B
:101000006C65720010B502A0FFF7B6F810BD0000C5
:10101000444D41315F53747265616D365F49525181
:1010200048616E646C65720010B502A0FFF7A4F809
:1010300010BD0000444D41315F53747265616D37DE
:101040005F49525148616E646C65720010B502A030
:10105000FFF792F810BD0000444D41325F537472A7
:1010600065616D305F49525148616E646C65720014
:1010700010B502A0FFF780F810BD0000444D4132CA
:101080005F53747265616D315F49525148616E649E
:101090006C65720010B502A0FFF76EF810BD00007D
:1010A000444D41325F53747265616D325F495251F4
:1010B00048616E646C65720010B502A0FFF75CF8C1
:1010C00010BD0000444D41325F53747265616D3351
:1010D0005F49525148616E646C65720010B502A0A0
:1010E000FFF74AF810BD0000444D41325F5374725F
:1010F00065616D345F49525148616E646C65720080
:1011000010B502A0FFF738F810BD0000444D413281
:101110005F53747265616D355F49525148616E6409
:101120006C65720010B502A0FFF726F810BD000034
:10113000444D41325F53747265616D365F4952515F
:1011400048616E646C65720010B502A0FFF714F878
:1011500010BD0000444D41325F53747265616D37BC
:101160005F49525148616E646C65720010B502A00F
:10117000FFF702F810BD00004554485F495251483E
:10118000616E646C6572000010B502A0FEF7F4FF9A
:1011900010BD00004554485F574B55505F495251B0
:1011A00048616E646C65720010B502A0FEF7E4FF42
:1011B00010BD000045585449305F49525148616E96
:1011C000646C65720000000010B502A0FEF7D4FF49
:1011D00010BD00004558544931355F31305F4952E8
:1011E0005148616E646C65720000000010B502A089
:1011F000FEF7C2FF10BD000045585449315F495207
:101200005148616E646C65720000000010B502A068
:10121000FEF7B2FF10BD000045585449325F4952F5
:101220005148616E646C65720000000010B502A048
:10123000FEF7A2FF10BD000045585449335F4952E4
:101240005148616E646C65720000000010B502A028
:10125000FEF792FF10BD000045585449345F4952D3
:101260005148616E646C65720000000010B502A008
:10127000FEF782FF10BD000045585449395F355FC5
:1012800049525148616E646C6572000002E002A030
:10129000FEF772FFFBE70000436C6F636B20457243
:1012A000726F720010B502A0FEF766FF10BD00005D
:1012B000464C4153485F49525148616E646C6572B7
:1012C0000000000010B502A0FEF756FF10BD0000A0
:1012D00046534D435F49525148616E646C657200DC
:1012E00001480068704700000400002070B5044603
:1012F0000E4800784FF47A71B1FBF0F00C490968A0
:10130000B1FBF0F5284600F077FB08B1012070BD75
:10131000102C07D200222146501E00F00DF805487F
:10132000046001E00120F2E70020F0E70C0000205B
:1013300000000020080000202DE9F05F80460D46E7
:101340001646002700F0CAFE074639462A463346AD
:1013500001F00700C0F1070ABAF1040F02D94FF0FB
:10136000040A01E0C0F1070AD14600F1040ABAF10B
:10137000070F02D24FF0000A01E0A0F1030AD446A1
:101380004FF0010A0AFA09FAAAF1010A0AEA020A66
:101390000AFA0CFA4FF0010B0BFA0CFBABF1010B44
:1013A0000BEA030B4AEA0B042146404600F09EFE7E
:1013B000BDE8F09F70B504460D460CB9012070BD24
:1013C0005A48006800F00F00A84209D257490D7032
:1013D0000846006800F00F00A84201D00120EEE7A7
:1013E000207800F0020002281DD1207800F00400CF
:1013F000042805D14E48006840F4E0504C4908608C
:10140000207800F00800082805D14948006840F419
:101410006040474908604648006820F0F000A16835
:10142000084343490860207800F0010090B36068E9
:10143000012807D13E4808380068C0F34040A0B9F1
:101440000120BCE76068022807D1394808380068E5
:10145000C0F3406048B90120B1E73548083800685A
:10146000C0F3400008B90120A9E73148006820F026
:101470000300616808432E490860FFF731FF064604
:1014800009E0FFF72DFF801B41F28831884202D925
:10149000032094E707E02648006800F00C0061682C
:1014A000B0EB810FEDD12148006800F00F00A84299
:1014B00009D91E490D700846006800F00F00A842C7
:1014C00001D001207BE7207800F00400042807D138
:1014D0001748006820F4E050E168084314490860A8
:1014E000207800F00800082808D11148006820F48E
:1014F0006040216940EAC1000D49086000F020F811
:101500000B49096801F0F001F02292FAA2F2B2FA56
:1015100082F2D140074A515CC84007490860074839
:101520000068FFF7E3FE002049E70000003C0240AE
:101530000838024040230608000000200800002070
:101540002DE9F047002400250026A1462548006823
:1015500000F00C0020B1042805D008283AD105E09D
:10156000DFF8849039E0DFF8849036E01D48001FF2
:10157000006800F03F041B48001F006800F4800072
:1015800078B11A481749091F0968C1F38811A0FBEF
:1015900001700146224600233846FEF775FD0546D8
:1015A0000EE011480F49091F0968C1F38811A0FB1B
:1015B00001700146224600233846FEF765FD0546C8
:1015C0000848001F0068C0F30140401C4600B5FBFE
:1015D000F6F902E0DFF8109000BF00BF4846BDE812
:1015E000F0870000083802400024F40040787D01B4
:1015F000F8B504460CB90120F8BD207800F00100D0
:10160000002848D0F748006800F00C0004280DD0EE
:10161000F448006800F00C00082811D1F148001FC0
:10162000006800F48000B0F5800F09D1ED4808385B
:101630000068C0F3404070B3606860BB0120DBE726
:101640002079E849891F0870606890B1FFF748FE6B
:10165000054606E0FFF744FE401B642801D903203D
:10166000CAE7E04808380068C0F340400028F1D0DD
:1016700011E0FFF735FE054606E0FFF731FE401B9F
:10168000642801D90320B7E7D64808380068C0F3BA
:1016900040400028F1D1207800F00200022869D1F2
:1016A000D048006800F00C0058B1CE48006800F047
:1016B0000C00082821D1CB48001F006800F48000EE
:1016C000D8B9C84808380068C0F3400020B1E068C5
:1016D000012801D001208FE7C2480838006820F0B7
:1016E000F800F82292FAA2F2B2FA82F2216991404D
:1016F0000843BC49083908603CE0E06828B3012091
:10170000B9490860FFF7ECFD054606E0FFF7E8FD84
:10171000401B022801D903206EE7B2480838006850
:10172000C0F340000028F1D0AE480838006820F02F
:10173000F800F82292FAA2F2B2FA82F221699140FC
:101740000843A8490839086014E00020A649086049
:10175000FFF7C6FD054606E0FFF7C2FD401B022865
:1017600001D9032048E79F4808380068C0F34000CB
:101770000028F1D1207800F0080008282CD16069F9
:10178000A8B1012099490860FFF7AAFD054606E0C7
:10179000FFF7A6FD401B022801D903202CE7914842
:1017A0006C300068C0F340000028F1D014E0002045
:1017B0008E490860FFF794FD054606E0FFF790FDAF
:1017C000401B022801D9032016E786486C300068C8
:1017D000C0F340000028F1D1207800F00400042874
:1017E00074D100267F483830006800F0805090B9EE
:1017F00000BF002000907B483830006840F08050E7
:101800007849383108600846006800F08050009040
:1018100000BF00BF01267648006840F4807074491C
:1018200008600846006800F48070A8B9084600689F
:1018300040F480700860FFF753FD054606E0FFF7AF
:101840004FFD401B022801D90320D5E668480068F7
:1018500000F480700028F2D0207A62496831087064
:10186000A068A0B1FFF73CFD054608E0FFF738FD92
:10187000401B41F28831884201D90320BCE6594817
:1018800068300068C0F340000028EFD013E0FFF795
:1018900027FD054608E0FFF723FD401B41F2883194
:1018A000884201D90320A7E64E4868300068C0F39B
:1018B00040000028EFD1012E07D14A483830006897
:1018C00020F0805047493831086000BFA0690028E7
:1018D0004BD04448006800F00C0008285CD0A06998
:1018E000022843D1002040490866FFF7F9FC05466D
:1018F00006E0FFF7F5FC401B642801D903207BE6D6
:10190000384808380068C0F340600028F1D1D4E9B5
:1019100007010843616A40EA81112C20005D41EA19
:1019200000610122A06AC2EB500041EA00402D494B
:10193000091F09682F4A114008432A49091F0860F6
:10194000012029490866FFF7CBFC054606E0FFF7B2
:10195000C7FC401B642801D903204DE62148083804
:101960000068C0F340600028F1D038E000201E4934
:101970000866FFF7B5FC054606E0FFF7B1FC401B23
:10198000642801D9032037E6164808380068C0F3F8
:1019900040600028F1D122E0A069012800D12BE6A7
:1019A0001048001F016801F48002E069824213D1EF
:1019B00001F03F02206A82420ED1C1F38812606AB0
:1019C000904209D101F44032A06A824204D101F070
:1019D0007062E06A824201D001200DE600BF002063
:1019E0000AE600000838024000004742800E4742E5
:1019F000007000400080BCF070B504462546681EAB
:101A0000B0F1807F01D301200FE0681E4FF0E0218C
:101A100048610F214FF0FF3000F068FB00204FF0CD
:101A2000E021886107200861002070BD10B502A088
:101A3000FEF7A2FB10BD0000484153485F524E47DD
:101A40005F49525148616E646C65720000BFFEE7E9
:101A500010B502A0FEF790FB10BD000049324331E3
:101A60005F45525F49525148616E646C6572000077
:101A700010B502A0FEF780FB10BD000049324331D3
:101A80005F45565F49525148616E646C6572000053
:101A900010B502A0FEF770FB10BD000049324332C2
:101AA0005F45525F49525148616E646C6572000037
:101AB00010B502A0FEF760FB10BD000049324332B2
:101AC0005F45565F49525148616E646C6572000013
:101AD00010B502A0FEF750FB10BD000049324333A1
:101AE0005F45525F49525148616E646C65720000F7
:101AF00010B502A0FEF740FB10BD00004932433391
:101B00005F45565F49525148616E646C65720000D2
:101B100010B50FA0FEF730FB42F2107000F0A8FBEA
:101B2000002409E021460EA0FEF726FB42F21070C9
:101B300000F09EFB601C84B20A2CF3DB0FA0FEF7C2
:101B40001BFB124812490860FEF77AFA10BD00002C
:101B500048692049535046756E630D0A0000000025
:101B600049535046756E6320636F756E74696E6776
:101B700021206E756D3A2025640D0A00427965209A
:101B800049535046756E630D0A00000000C00008FE
:101B900008ED00E00A49096801F0010171B1084946
:101BA0008039096801F0010141B100BF4FF0604187
:101BB00009680029FAD04FF06042107070470000A9
:101BC000800E00E010B502A0FEF7D6FA10BD0000AE
:101BD0004F54475F46535F49525148616E646C658C
:101BE0007200000010B502A0FEF7C6FA10BD00009A
:101BF0004F54475F46535F574B55505F49525148CA
:101C0000616E646C6572000010B502A0FEF7B4FA54
:101C100010BD00004F54475F48535F4550315F4946
:101C20004E5F49525148616E646C6572000000005D
:101C300010B502A0FEF7A0FA10BD00004F54475F98
:101C400048535F4550315F4F55545F495251486189
:101C50006E646C657200000010B502A0FEF78CFA8D
:101C600010BD00004F54475F48535F4952514861CF
:101C70006E646C657200000010B502A0FEF77CFA7D
:101C800010BD00004F54475F48535F574B55505F9E
:101C900049525148616E646C6572000010B502A033
:101CA000FEF76AFA10BD00005056445F4952514891
:101CB000616E646C6572000010B502A0FEF75CFAFC
:101CC00010BD00005243435F49525148616E646C3D
:101CD0006572000010B502A0FEF74EFA10BD0000BC
:101CE0005254435F416C61726D5F49525148616E5D
:101CF000646C65720000000010B502A0FEF73CFAAB
:101D000010BD00005254435F574B55505F4952512C
:101D100048616E646C65720010B502A0FEF72CFA83
:101D200010BD00005344494F5F49525148616E64F1
:101D30006C65720010B502A0FEF71EFA10BD00001F
:101D4000493243325F45525F49525148616E646C7B
:101D50006572000010B502A0FEF70EFA10BD00007B
:101D6000535049325F49525148616E646C6572004C
:101D700010B502A0FEF700FA10BD00005350493321
:101D80005F49525148616E646C6572007047000093
:101D900000B591B0302105A8FEF76AFA1421684613
:101DA000FEF766FA022005900120089010200990A5
:101DB00002200B9000210C910D210D91C3210E9159
:101DC00002210F91042110910F4800680F498842A9
:101DD00005D005A8FFF70CFC08B1FFF757FA0F2054
:101DE000009002200190002002904FF4A050039038
:101DF0004FF48050049003216846FFF7DBFA08B1E6
:101E0000FFF744FA11B000BD04380240CD30002481
:101E10007047000010B502A0FEF7AEF910BD00003B
:101E200054414D505F5354414D505F4952514861A8
:101E30006E646C657200000010B502A0FEF79CF99C
:101E400010BD000054494D315F42524B5F54494D23
:101E5000395F49525148616E646C65720000000040
:101E600010B502A0FEF788F910BD000054494D31AD
:101E70005F43435F49525148616E646C6572000074
:101E800010B502A0FEF778F910BD000054494D319D
:101E90005F5452475F434F4D5F54494D31315F4965
:101EA000525148616E646C657200000010B502A06A
:101EB000FEF762F910BD000054494D315F55505F87
:101EC00054494D31305F49525148616E646C6572BE
:101ED0000000000010B502A0FEF74EF910BD000092
:101EE00054494D335F49525148616E646C657200CC
:101EF00010B502A0FEF740F910BD000054494D3462
:101F00005F49525148616E646C65720010B502A061
:101F1000FEF732F910BD000054494D355F4952516A
:101F200048616E646C65720010B502A0FEF724F97A
:101F300010BD000054494D365F4441435F49525142
:101F400048616E646C65720010B502A0FEF714F96A
:101F500010BD000054494D375F49525148616E64CD
:101F60006C65720010B502A0FEF706F910BD000006
:101F700054494D385F42524B5F54494D31325F49AD
:101F8000525148616E646C657200000010B502A089
:101F9000FEF7F2F810BD000054494D385F43435F2F
:101FA00049525148616E646C6572000010B502A020
:101FB000FEF7E2F810BD000054494D385F54524717
:101FC0005F434F4D5F54494D31345F495251486131
:101FD0006E646C657200000010B502A0FEF7CCF8CC
:101FE00010BD000054494D385F55505F54494D3184
:101FF000335F49525148616E646C657200000000A5
:1020000010B502A0FEF7B8F810BD000055415254BB
:10201000345F49525148616E646C65720000000083
:1020200010B502A0FEF7A8F810BD000055415254AB
:10203000355F49525148616E646C65720000000062
:1020400010B502A0FEF798F810BD0000555341529C
:1020500054315F49525148616E646C6572000000F2
:1020600010B502A0FEF788F810BD0000555341528C
:1020700054325F49525148616E646C6572000000D1
:1020800010B502A0FEF778F810BD0000555341527C
:1020900054335F49525148616E646C6572000000B0
:1020A00010B502A0FEF768F810BD0000555341526C
:1020B00054365F49525148616E646C65720000008D
:1020C00010B502A0FEF758F810BD0000575744475E
:1020D0005F49525148616E646C6572000248006845
:1020E000C0F30220704700000CED00E010B500289E
:1020F00004DB0A07130E054A135406E00A07140E00
:10210000034A00F00F031B1FD45410BD00E400E08D
:1021100018ED00E001466FF40040084420B10128AA
:1021200004D0022806D103E0002070470020FCE71D
:102130000020FAE74FF0FF30F7E701466FF4004068
:10214000084420B1012804D0022806D103E0002071
:1021500070470020FCE70020FAE70020F8E701467E
:102160006FF40040084420B1012804D0022806D1B1
:1021700003E0012070470120FCE70120FAE700207E
:10218000F8E7000070B504460D4614B94FF0FF3073
:1021900070BD20783A281AD10EA12046FEF790F89B
:1021A00010B948F20100F3E70CA12046FEF788F8C9
:1021B00010B948F20200EBE70AA12046FEF780F8CA
:1021C00010B948F20300E3E74FF0FF30E0E74FF0CB
:1021D000FF30DDE73A535444494E00003A5354442B
:1021E0004F5554003A5354444552520002466FF43E
:1021F0000040104420B1012805D0022809D105E093
:102200004FF0FF3070474FF0FF30FBE74FF0FF30EB
:10221000F8E74FF0FF30F5E72DE9F04107460C46AF
:10222000154698466FF40040384420B1012806D086
:1022300002281AD10EE04FF0FF30BDE8F08105E032
:1022400014F8016B304600F075F86D1E002DF7D1C3
:102250000020F2E705E014F8016B304600F064F866
:102260006D1E002DF7D10020E7E74FF0FF30E4E7C7
:1022700008E0401E0A2100BF0A1EA1F1010399B225
:10228000FAD100BF0028F4D170478A68002A01DC27
:10229000FEF7C8B9521E8A604A68C0B2531C4B6030
:1022A0001070704710B5124800681249884201D179
:1022B000FFF72EFCFFF76CFD0FA0FDF75DFF42F26C
:1022C0001070FFF7D5FF002409E021460DA0FDF7AF
:1022D00053FF42F21070FFF7CBFF601C84B20A2C50
:1022E000F3DB0EA0FDF748FFFFF712FC002010BD46
:1022F00008ED00E000C000084869204953500D0A6D
:102300000000000049535020636F756E74696E675A
:1023100021206E756D3A2025640D0A0042796520F2
:102320004953500D0A00000000B503461846FFF758
:1023300031FC00BD00B503461846FFF72BFC00BD7D
:102340000000000000000000010203040607080965
:1023500000000000010203043A535444494E003A7D
:102360005354444F5554003A53544445525200007C
:102370000024F40000000000100000000100000034
:0C23800000000000000000000000000051
:0400000508060049A0
:00000001FF
